:020000040800F2
:10000000005000205D260008B9240008C124000823
:10001000C9240008D1240008D924000800000000E9
:10002000000000000000000000000000E1240008C3
:10003000ED24000800000000F92400080525000850
:10004000A5260008A5260008A5260008A526000864
:10005000A5260008A5260008A526000811250008E9
:10006000A5260008A5260008A5260008A526000844
:10007000A5260008A5260008A5260008A526000834
:10008000A5260008A5260008A5260008A526000824
:10009000A5260008A5260008A5260008A526000814
:1000A000A5260008A5260008A5260008A526000804
:1000B000A5260008A5260008A5260008A5260008F4
:1000C000A5260008A5260008A5260008A5260008E4
:1000D000A5260008A5260008A5260008A5260008D4
:1000E000A5260008A5260008A52600080000000097
:1000F0000000000000000000000000000000000000
:0C01000000000000000000005FF808F1A3
:10010C0010B5054C237833B9044B13B10448AFF345
:10011C0000800123237010BD74000020000000003B
:10012C00A060000808B5034B1BB103490348AFF3AB
:10013C00008008BD0000000078000020A0600008CE
:10014C00034613F8012B002AFBD1181A013870470B
:10015C0080F0004002E000BF81F0004142001FBF70
:10016C005FEA410392EA030F7FEA226C7FEA236C79
:10017C006AD04FEA1262D2EB1363C1BFD21841406E
:10018C0048404140B8BF5B42192B88BF704710F004
:10019C00004F40F4000020F07F4018BF404211F0A7
:1001AC00004F41F4000121F07F4118BF494292EA0F
:1001BC00030F3FD0A2F1010241FA03FC10EB0C003B
:1001CC00C3F1200301FA03F100F0004302D54942C8
:1001DC0060EB4000B0F5000F13D3B0F1807F06D375
:1001EC0040084FEA310102F10102FE2A51D2B1F16D
:1001FC00004F40EBC25008BF20F0010040EA030062
:10020C007047490040EB0000013A28BFB0F5000FE1
:10021C00EDD2B0FA80FCACF1080CB2EB0C0200FA97
:10022C000CF0AABF00EBC25052421843BCBFD040E6
:10023C001843704792F0000F81F4000106BF80F460
:10024C0000000132013BB5E74FEA41037FEA226C23
:10025C0018BF7FEA236C21D092EA030F04D092F0EE
:10026C00000F08BF0846704790EA010F1CBF002022
:10027C00704712F07F4F04D1400028BF40F000407F
:10028C00704712F100723CBF00F50000704700F09F
:10029C00004343F0FE4040F4000070477FEA2262C6
:1002AC0016BF08467FEA23630146420206BF5FEA97
:1002BC00412390EA010F40F4800070474FF0000397
:1002CC0004E000BF10F0004348BF40425FEA000C5E
:1002DC0008BF704743F0964301464FF000001CE006
:1002EC0050EA010208BF70474FF000030AE000BF5C
:1002FC0050EA010208BF704711F0004302D540429A
:10030C0061EB41015FEA010C02BF8446014600200B
:10031C0043F0B64308BFA3F18053A3F50003BCFA26
:10032C008CF2083AA3EBC25310DB01FA02FC6344D3
:10033C0000FA02FCC2F12002BCF1004F20FA02F2DA
:10034C0043EB020008BF20F00100704702F12002CD
:10035C0001FA02FCC2F1200250EA4C0021FA02F22E
:10036C0043EB020008BF20EADC7070474FF0FF0C33
:10037C001CEAD0521EBF1CEAD15392EA0C0F93EA2E
:10038C000C0F6FD01A4480EA010C400218BF5FEAD0
:10039C0041211ED04FF0006343EA501043EA511143
:1003AC00A0FB01310CF00040B1F5000F3EBF49003D
:1003BC0041EAD3715B0040EA010062F17F02FD2A41
:1003CC001DD8B3F1004F40EBC25008BF20F0010024
:1003DC00704790F0000F0CF0004C08BF49024CEA3B
:1003EC00502040EA51207F3AC2BFD2F1FF0340EACD
:1003FC00C250704740F400004FF00003013A5DDC3E
:10040C0012F1190FDCBF00F000407047C2F100027E
:10041C00410021FA02F1C2F1200200FA02FC5FEA6B
:10042C00310040F1000053EA4C0308BF20EADC70B5
:10043C00704792F0000F00F0004C02BF400010F427
:10044C00000F013AF9D040EA0C0093F0000F01F0D4
:10045C00004C02BF490011F4000F013BF9D041EAF6
:10046C000C018FE70CEAD15392EA0C0F18BF93EAF8
:10047C000C0F0AD030F0004C18BF31F0004CD8D122
:10048C0080EA010000F00040704790F0000F17BFA9
:10049C0090F0004F084691F0000F91F0004F14D0EF
:1004AC0092EA0C0F01D142020FD193EA0C0F03D147
:1004BC004B0218BF084608D180EA010000F000404A
:1004CC0040F0FE4040F40000704740F0FE4040F425
:1004DC00400070474FF0FF0C1CEAD0521EBF1CEAC4
:1004EC00D15392EA0C0F93EA0C0F69D0A2EB0302E2
:1004FC0080EA010C49024FEA402037D04FF080537C
:10050C0043EA111143EA10130CF000408B4238BF40
:10051C005B0042F17D024FF4000C8B4224BF5B1A4E
:10052C0040EA0C00B3EB510F24BFA3EB510340EA9C
:10053C005C00B3EB910F24BFA3EB910340EA9C004A
:10054C00B3EBD10F24BFA3EBD10340EADC001B01BA
:10055C0018BF5FEA1C1CE0D1FD2A3FF650AF8B425E
:10056C0040EBC25008BF20F0010070470CF0004C6B
:10057C004CEA50207F32C2BFD2F1FF0340EAC25096
:10058C00704740F400004FF00003013A37E792F057
:10059C00000F00F0004C02BF400010F4000F013AB5
:1005AC00F9D040EA0C0093F0000F01F0004C02BFB0
:1005BC00490011F4000F013BF9D041EA0C0195E719
:1005CC000CEAD15392EA0C0F08D142027FF47DAFB2
:1005DC0093EA0C0F7FF470AF084676E793EA0C0FA2
:1005EC0004D14B023FF44CAF08466EE730F0004CA0
:1005FC0018BF31F0004CCAD130F000427FF45CAF30
:10060C0031F000437FF43CAF5FE700BF4FF0FF3C9D
:10061C0006E000BF4FF0010C02E000BF4FF0010CF0
:10062C004DF804CD4FEA40024FEA41037FEA226CB9
:10063C0018BF7FEA236C11D001B052EA530C18BFDB
:10064C0090EA010F58BFB2EB030088BFC81738BF40
:10065C006FEAE17018BF40F0010070477FEA226C2E
:10066C0002D15FEA402C05D17FEA236CE4D15FEA2A
:10067C00412CE1D05DF8040B704700BF844608465E
:10068C006146FFE70FB5FFF7C9FF002848BF10F11F
:10069C00000F0FBD4DF808EDFFF7F4FF0CBF012064
:1006AC0000205DF808FB00BF4DF808EDFFF7EAFFEE
:1006BC0034BF012000205DF808FB00BF4DF808EDA9
:1006CC00FFF7E0FF94BF012000205DF808FB00BF9E
:1006DC004DF808EDFFF7D2FF94BF012000205DF824
:1006EC0008FB00BF4DF808EDFFF7C8FF34BF012031
:1006FC0000205DF808FB00BF4FEA4002B2F1FE4F4C
:10070C000FD34FF09E03B3EB12620DD94FEA0023C7
:10071C0043F0004310F0004F23FA02F018BF4042A0
:10072C0070474FF00000704712F1610F01D1420287
:10073C0005D110F0004008BF6FF0004070474FF03B
:10074C000000704742000ED2B2F1FE4F0BD34FF0B7
:10075C009E03B3EB126209D44FEA002343F000432B
:10076C0023FA02F070474FF00000704712F1610F4E
:10077C0001D1420202D14FF0FF3070474FF0000020
:10078C00704700BF80B483B000AF7860034A7B68C9
:10079C00136000BF0C37BD4680BC70479000002032
:1007AC0080B586B000AF7860224B1B68002B01D15E
:1007BC0000233AE007F1080300221A605A609A609D
:1007CC007B68BB600123FB6006233B61194B1B68F4
:1007DC0007F108021146184602F0AAFA0346002B4C
:1007EC0001D0002321E0134B1B68184602F0B4F82B
:1007FC00104B1B680A21184602F088F90346002B9F
:10080C0006D00C4B1B68184602F054F900230CE080
:10081C00084B1B68184602F07FFA0346FB82054B17
:10082C001B68184602F046F9FB8A18461837BD4675
:10083C0080BD00BF9000002080B500AF0020FFF706
:10084C00AFFF0346184680BD80B582B000AFFFF7FE
:10085C00F3FF0346FB80FB881846FFF72FFD03468A
:10086C0006491846FFF736FE034605491846FFF7BA
:10087C007DFD034618460837BD4680BD00F07F4518
:10088C000000C84280B500AF0320FFF789FF034684
:10089C00184680BD80B582B000AF00237B60642316
:1008AC003B8000237B800CE0FFF7ECFF03461A46ED
:1008BC007B6813447B60022001F052FF7B8801337C
:1008CC007B807A883B889A42EED33B887A68B2FB6D
:1008DC00F3F39AB2024B1A8000BF0837BD4680BDB5
:1008EC009400002080B586B000AFFFF7CBFF034625
:1008FC007B827B8A1846FFF7E1FC034626491846A3
:10090C00FFF7E8FD034625491846FFF72FFD034680
:10091C00FB60234B1B881846FFF7D0FC03461E498F
:10092C001846FFF7D7FD03461C491846FFF71EFD76
:10093C000346BB60B968F868FFF70EFC03467B60A2
:10094C0018497868FFF7C6FD03467B614FF000013C
:10095C007869FFF7A9FE0346002B03D07B6983F06F
:10096C0000437B6110497869FFF79EFE0346002B1C
:10097C0002D04FF000037B610C497869FFF7B2FE9F
:10098C000346002B02D04FF000037B617B691846B5
:10099C001837BD4680BD00BF00F07F453333534050
:1009AC0094000020A4703D3ECDCCCC3D00002041F5
:1009BC0080B500AF0420FFF7F3FE0346184680BD58
:1009CC0080B500AF0520FFF7EBFE0346184680BD4F
:1009DC0080B582B000AFFFF7EBFF0346FB80FB88CE
:1009EC001846FFF76BFC034609491846FFF772FDE2
:1009FC00034608491846FFF7B9FC03463B60064915
:100A0C003868FFF7B3FC034618460837BD4680BD6F
:100A1C0000F07F45333353406666B64080B582B0F4
:100A2C0000AFFFF7CDFF0346FB80FB881846FFF7AE
:100A3C0045FC034609491846FFF74CFD0346084997
:100A4C001846FFF793FC03463B6006493868FFF7EE
:100A5C008DFC034618460837BD4680BD00F07F4527
:100A6C00333353406666B64080B584B000AFFFF7B1
:100A7C00AFFFB860FFF7D2FF78607968B868FFF70E
:100A8C006BFB0346FB604FF00001F868FFF70CFEB0
:100A9C000346002B03D0FB6883F00043FB60FB682C
:100AAC0018461037BD4680BD80B500AF064B0022FE
:100ABC001A60064B4FF000021A6001F047FE034625
:100ACC00034A136000BF80BD98000020A0000020E6
:100ADC009C00002080B400AF044B1B680133034A18
:100AEC00136000BFBD4680BC704700BF980000205B
:100AFC0090B585B000AF01F029FEF860174B1B686C
:100B0C00FA68D31ABB60BB68632B23D9144B1B68E0
:100B1C007B60134B00221A607868FFF7CFFB03460B
:100B2C0010491846FFF722FC03461C46B868FFF72D
:100B3C00C5FB03460C491846FFF718FC034619463B
:100B4C002046FFF7C7FC03461A46084B1A60034AB7
:100B5C00FB68136000BF1437BD4690BD9C0000209D
:100B6C009800002000606A470000A041A00000200F
:100B7C0080B400AF024B1B681846BD4680BC704762
:100B8C00A000002080B400AF034B00221A7000BFFD
:100B9C00BD4680BC704700BFA400002080B584B067
:100BAC0000AFB9607A601A460346FB8113467B732B
:100BBC00FB89642203FB02F2274BA3FB0213D21A1C
:100BCC0052081344DB0A9AB2244B1A80B868FFF718
:100BDC0093FD03461AB2224B1A80224A7B6813609B
:100BEC003B7F002B05D0204A0C21204804F08EFDC1
:100BFC0016E03B7E002B05D01D4A0C211B4804F04F
:100C0C0085FD0DE0FB89002B05D11A4A0C211748F4
:100C1C0004F07CFD04E0184A0C21144804F076FD25
:100C2C007B7B012B05D1154A0821154804F06EFD7C
:100C3C000DE07B7B022B05D1124A0821104804F0F1
:100C4C0065FD04E00B4A08210D4804F05FFD00BF70
:100C5C001037BD4680BD00BF711F5A23D201002042
:100C6C00D4010020D8010020B86000080C0000203E
:100C7C00C0600008C8600008D0600008D46000089C
:100C8C0004000020D860000880B58EB002AF01F0DF
:100C9C0005FD00F075FB00F0BFFC00F093FC00F0CC
:100CAC00C1FB00F0FDFB00F029FCA54801F06EFC37
:100CBC00A44801F079FCA44801F076FCA348FFF7A6
:100CCC0061FDA34801F070FC4FF47A7001F048FD0F
:100CDC00FFF7E0FD9F4801F067FCFFF7E5FE9E483B
:100CEC0001F062FC042200219C4801F03DF99C4873
:100CFC0001F05AFCFFF746FF9A4801F055FC9A4860
:100D0C0000F03CFD994801F04FFC994801F04CFC77
:100D1C00984B00221A7001F019FD0346964A136095
:100D2C00964B01221A70964B00221A70914B1B782D
:100D3C00002B03D0934801F037FC02E0924801F0FD
:100D4C0033FC4FF48051914802F018FC034687F8AD
:100D5C002F308F4B1B78012B37D197F82F30002B6E
:100D6C0033D101F0F3FCB8628A4B1B68BA6AD31A10
:100D7C00C82B2AD9874ABB6A13607E4B1B78002B81
:100D8C000CBF01230023DBB21A467A4B1A70824B3C
:100D9C0000221A80814B00221A80794B00221A7093
:100DAC00764B01221A7001F0D1FC0346724A136093
:100DBC0001F0D4F96F4B1B78002B03D0784801F06D
:100DCC00F3FB02E0774801F0EFFB714A97F82F3004
:100DDC0013704FF400516D4802F0D0FB034687F8B6
:100DEC002730714B1B78012B3AD197F82730002B09
:100DFC0036D101F0ABFC38626C4B1B683A6AD31AE3
:100E0C00C82B2DD9694A3B6A1360694B1B78002BA0
:100E1C000CBF01230023DBB21A46654B1A705E4BE4
:100E2C0000221A805D4B00221A80624B00221A802D
:100E3C00534B00221A70514B01221A7001F086FCA0
:100E4C0003464D4A136001F089F9594B1B78002B6E
:100E5C0003D0594801F0A8FB02E0584801F0A4FB6C
:100E6C00514A97F8273013704FF00003FB614FF095
:100E7C000003BB614FF000037B614FF000033B614B
:100E8C00FFF7E2FCF861FFF72DFDB861FFF7ECFD11
:100E9C0078614B49F869FFF71DFB03464949184631
:100EAC00FFF764FA0346BB61FFF722FEFFF760FE13
:100EBC003861454B1B78FB73434B1B78002B20D1BF
:100ECC004FF07E51B869FFF703FC0346002B11D09D
:100EDC003E4B01221A703C4B01221A702E4B002201
:100EEC001A802E4B00221A80324B00221A8001F0FD
:100EFC0035F980E0354B00221A70334B00221A7002
:100F0C0079E03349B869FFF7D9FB0346002B61D070
:100F1C002E4B00221A702C4B00221A701E4B0022F2
:100F2C001A801E4B00221A80224B00221A80144B6E
:100F3C0000221A7001F00AFC03460F4A13605AE0B3
:100F4C0074010020DC600008F4600008A800002098
:100F5C000861000824610008486100082C01002089
:100F6C00646100087C610008D800002098610008CA
:100F7C00B0610008C2010020C40100200000002064
:100F8C00DC010020D4610008EC610008000C014079
:100F9C0001000020C8010020BE010020BC0100207F
:100FAC00046200081C62000802000020CC01002032
:100FBC00D0010020C0010020346200084C620008FF
:100FCC000000C8429A99993FDE010020DD01002003
:100FDC009A99593F7F4B01221A707F4B01221A704C
:100FEC007E4B00221A807E4B00221A807D4B002201
:100FFC001A8001F0B3F8FB7B002B0CD1764B1B78DD
:10100C00002B08D0754B00221A80754B00221A80D9
:10101C0001F0A4F814E0FB7B002B11D06E4B1B7875
:10102C00002B0DD16D4B00221A806D4B00221A80C3
:10103C006D4B00221A7001F089FB03466B4A13605A
:10104C00654B1B78002B40F0A880694B1B78002B5C
:10105C0040F0A3806749F869FFF73CFA03466649FC
:10106C001846FFF783F903461846FFF76BFB034658
:10107C009AB25C4B1A80614B1B78002B08D0594BF1
:10108C001B88B3F5966F03D2564B4FF496621A80B9
:10109C005A4B1B78002B3FD001F058FBB860524BD9
:1010AC001B78022B20D0022B32DC002B02D0012B20
:1010BC000FD02DE04B4B1A88494B1A804B4B1B68B9
:1010CC00BA68D31AB3F57A6F2ED3474B01221A7034
:1010DC002AE0434B00221A80404B1B88002B25D161
:1010EC00414B02221A7021E0454B1B78012B03D196
:1010FC00434B02221A7002E0414B01221A7001F09C
:10110C0025FB0346394A1360374B00221A700EE058
:10111C00354B00221A700AE0324B1A88304B1A8079
:10112C00374B01221A7002E000BF00E000BF2B4BCE
:10113C001A882B4B1B889A4214D2294B1A88274B9E
:10114C001B88D31ABB80BB880F2B06D9234B1B885B
:10115C000F339AB2214B1A8029E0214B1A881F4B6E
:10116C001A8024E01D4B1A881D4B1B889A421ED9ED
:10117C001A4B1A881A4B1B88D31AFB80FB880F2B2F
:10118C0006D9164B1B880F3B9AB2144B1A800EE0F3
:10119C00134B1A88114B1A8009E0124B00221A804B
:1011AC000F4B00221A800D4B00221A8000E000BF6A
:1011BC00094B1B78002B25D10D4B1B78002B21D113
:1011CC00064B1B880E4A12781146184600F004FF95
:1011DC001AE000BFDD010020DE010020BE0100206E
:1011EC00BC010020C0010020DC010020C401002053
:1011FC00D00100200000C84200C05545C2010020AB
:10120C000000002000F0AAFF4A4B18884A4B1978BE
:10121C004A4B1B784A4A1278019200930B46BA69E2
:10122C003969FFF7BBFC474B1B78002B52D0434B63
:10123C001B78002B4ED1424B1B78002B4AD1424BD2
:10124C001B78002B0ED13C4B1B78012B0AD13F4A4B
:10125C000C213F4804F05AFA3E4A08213E4804F05B
:10126C0055FA37E0384B1B78012B0ED1324B1B78DB
:10127C00012B0AD1394A0C21354804F047FA354A7A
:10128C000821354804F042FA24E02F4B1B78002B40
:10129C000ED1294B1B78022B0AD1314A0C212C4838
:1012AC0004F034FA2F4A08212B4804F02FFA11E0ED
:1012BC00254B1B78012B0DD11F4B1B78022B09D111
:1012CC00294A0C21224804F021FA264A08212248F6
:1012DC0004F01CFA01F03AFA0246244B1B68D31AAC
:1012EC00B3F5FA7F21D301F031FA03461F4A13609C
:1012FC004FF400511E4802F070F91E4B18881E4B1B
:10130C00B3F900101D4B1A68114B0093124B01F0EE
:10131C006BF9184B1888184BB3F90010174B1A6857
:10132C000B4B00930C4B00F059FA142001F018FAF7
:10133C0007E500BFBE01002000000020DE010020F8
:10134C00D0010020C2010020DC01002068620008EE
:10135C000C000020D4600008040000207462000817
:10136C0080620008D86000088C620008E001002050
:10137C0000100140D2010020D4010020D80100202F
:10138C0080B594B000AF07F128032822002118463D
:10139C0004F0F2F907F1140300221A605A609A6003
:1013AC00DA601A613B1D00221A605A609A60DA609A
:1013BC000223BB620123BB631023FB6300237B640A
:1013CC0007F12803184602F0D5FD0346002B01D087
:1013DC0000F0CEF90F237B610023BB610023FB617E
:1013EC004FF480633B6200237B6207F114030021FE
:1013FC00184603F041F80346002B01D000F0B8F971
:10140C0002237B600023FB603B1D184603F0C2F9EE
:10141C000346002B01D000F0ABF900BF5037BD469E
:10142C0080BD000080B584B000AF3B1D00221A6067
:10143C005A609A60184B194A1A60174B00229A602E
:10144C00154B00221A73144B00221A75124B4FF4D1
:10145C006022DA61104B00225A600F4B01221A6194
:10146C000D4801F0A1F90346002B01D000F080F9E2
:10147C0000237B600123BB600623FB603B1D1946E8
:10148C00054801F055FC0346002B01D000F070F923
:10149C0000BF1037BD4680BDA800002000240140CD
:1014AC0080B500AF124B134A1A60114B124A5A60A6
:1014BC000F4B00229A600E4B0022DA600C4B4FF45B
:1014CC0080421A610A4B00225A61094B00229A6130
:1014DC00074B0022DA61064B00221A62044802F024
:1014EC00ADF80346002B01D000F042F900BF80BDDF
:1014FC00D800002000540040A086010080B58AB0BE
:10150C0000AF07F1200300221A605A603B1D002235
:10151C001A605A609A60DA601A615A619A61274BB4
:10152C00274A1A60254B00225A60244B00229A60ED
:10153C00224B40F60F62DA60204B00221A611F4BDF
:10154C0000229A611D4803F091FA0346002B01D04A
:10155C0000F00EF900233B6200237B6207F12003AD
:10156C001946164803F050FE0346002B01D000F03C
:10157C00FFF860237B600023BB600023FB6000232B
:10158C007B613B1D002219460C4803F061FB0346AE
:10159C00002B01D000F0ECF83B1D04221946074843
:1015AC0003F056FB0346002B01D000F0E1F8034892
:1015BC0000F0FEFE00BF2837BD4680BD2C01002088
:1015CC000004004080B500AF114B124A1A60104B5A
:1015DC004FF4E1325A600E4B00229A600C4B002201
:1015EC00DA600B4B00221A61094B0C225A61084B32
:1015FC0000229A61064B0022DA61054803F062FE74
:10160C000346002B01D000F0B3F800BF80BD00BF33
:10161C00740100200038014080B588B000AF07F19C
:10162C00100300221A605A609A60DA60444B9B697E
:10163C00434A43F010039361414B9B6903F0100341
:10164C00FB60FB683E4B9B693D4A43F02003936172
:10165C003B4B9B6903F02003BB60BB68384B9B6919
:10166C00374A43F004039361354B9B6903F0040341
:10167C007B607B68324B9B69314A43F00803936172
:10168C002F4B9B6903F008033B603B6800224FF42F
:10169C0000512C4801F089FF002203212A4801F057
:1016AC0084FF4FF400533B6101237B610023BB613A
:1016BC000223FB6107F110031946224801F0DAFD01
:1016CC0002233B61214B7B610023BB6107F11003BB
:1016DC0019461F4801F0CEFD04233B6100237B61BA
:1016EC000023BB6107F110031946194801F0C2FD34
:1016FC0003233B6101237B610023BB610223FB615C
:10170C0007F110031946104801F0B4FD4FF4405393
:10171C003B6100237B610123BB6107F11003194678
:10172C00094801F0A7FD00220021072001F06BFD04
:10173C00072001F084FD00BF2037BD4680BD00BFEF
:10174C000010024000100140000C0140000011107C
:10175C000008014080B582B000AF0346FB80FB88D7
:10176C00022B01D1FFF7B6F900BF0837BD4680BD8B
:10177C0080B400AF72B600BF00BFFDE780B582B089
:10178C0000AF7860786800F05DFA002000F0CEFAC7
:10179C000021002000F042FB0D4800F0CFFB0C2193
:1017AC00002000F03BFB0B4800F0C8FB1821002088
:1017BC0000F034FB084800F0C1FB00F0CFFA4FF406
:1017CC007A7000F0CDFF00BF0837BD4680BD00BF6A
:1017DC0098620008A8620008B462000880B58CB05A
:1017EC0000AFBA607B600346FB810B46BB8132497C
:1017FC00B868FEF7BBFD03461846FEF77DFF0346AF
:10180C00FB85002000F092FA0021002000F006FB7E
:10181C0007F11400BB6B294A182103F077FF07F17D
:10182C001403184600F08AFB0C21002000F0F6FA95
:10183C00FB8907F11400224A182103F067FF07F116
:10184C001403184600F07AFB1821002000F0E6FA89
:10185C00B7F90C3007F114001A4A182103F056FF9F
:10186C0007F11403184600F069FB2421002000F056
:10187C00D5FAB7F92E3007F11400134A182103F0EA
:10188C0045FF07F11403184600F058FB30210020E7
:10189C0000F0C4FA07F114007B680C4A182103F01D
:1018AC0035FF07F11403184600F048FB00F056FA18
:1018BC0000BF3037BD4680BD00007A44C4620008CA
:1018CC00D0620008DC620008E4620008EC620008E8
:1018DC0080B586B002AF0346FB7100233B73FB79E6
:1018EC007B730F4B1B68002B16D00D4B186807F140
:1018FC000C02642300930223782101F0E3FF0346DA
:10190C00002B09D04FF40051064801F066FE64200C
:10191C0000F026FF00BFF5E700BF1037BD4680BDC5
:10192C00E40100200010014080B483B000AF0346F6
:10193C00FB710B46BB7113467B7197F90730002B7B
:10194C003DDBBB793F2B3AD87B79002B1AD0FA7947
:10195C00BB79DB08D8B20346DB0113441A4AD35CCB
:10196C005AB2BB7903F00703012101FA03F35BB20E
:10197C00134359B2FA790346DB011344C9B2124A34
:10198C00D1541DE0FA79BB79DB08D8B20346DB01F0
:10199C0013440D4AD35C5AB2BB7903F007030121FF
:1019AC0001FA03F35BB2DB435BB2134059B2FA7931
:1019BC000346DB011344C9B2034AD15400E000BF13
:1019CC000C37BD4680BC7047E801002080B483B062
:1019DC0000AF0346FB71FB79602B05D9FB797A2BA1
:1019EC0002D8FB79203BFB71FB79203B3A2B00F2B0
:1019FC00CD8001A252F823F0F11A0008991B0008BF
:101A0C00991B0008991B0008991B0008891B0008EA
:101A1C00991B0008991B0008991B0008991B0008CA
:101A2C00991B0008991B0008991B0008911B0008C2
:101A3C008D1B0008951B0008F51A0008F91A000800
:101A4C00FD1A0008011B0008051B0008091B0008F3
:101A5C000D1B0008111B0008151B0008191B0008A2
:101A6C00851B0008991B0008991B0008991B00088E
:101A7C00991B0008991B0008991B00081D1B0008E6
:101A8C00211B0008251B0008291B00082D1B000822
:101A9C00311B0008351B0008391B00083D1B0008D2
:101AAC00411B0008451B0008491B00084D1B000882
:101ABC00511B0008551B0008591B00085D1B000832
:101ACC00611B0008651B0008691B00086D1B0008E2
:101ADC00711B0008751B0008791B00087D1B000892
:101AEC00811B00082C4B52E02C4B50E02C4B4EE051
:101AFC002C4B4CE02C4B4AE02C4B48E02C4B46E05A
:101B0C002C4B44E02C4B42E02C4B40E02C4B3EE069
:101B1C002C4B3CE02C4B3AE02C4B38E02C4B36E079
:101B2C002C4B34E02C4B32E02C4B30E02C4B2EE089
:101B3C002C4B2CE02C4B2AE02C4B28E02C4B26E099
:101B4C002C4B24E02C4B22E02C4B20E02C4B1EE0A9
:101B5C002C4B1CE02C4B1AE02C4B18E02C4B16E0B9
:101B6C002C4B14E02C4B12E02C4B10E02C4B0EE0C9
:101B7C002C4B0CE02C4B0AE02C4B08E02C4B06E0D9
:101B8C002C4B04E02C4B02E02C4B00E02C4B184669
:101B9C000C37BD4680BC7047546300085C6300087A
:101BAC00646300086C630008746300087C630008BD
:101BBC00846300088C630008946300089C6300082D
:101BCC00A4630008AC630008B4630008BC6300089D
:101BDC00C4630008CC630008D4630008DC6300080D
:101BEC00E4630008EC630008F4630008FC6300087D
:101BFC00046400080C640008146400081C640008E9
:101C0C00246400082C640008346400083C64000858
:101C1C00446400084C640008546400085C640008C8
:101C2C00646400086C640008746400087C64000838
:101C3C00846400088C640008946400089C640008A8
:101C4C00A464000880B582B000AF7860364A7B6827
:101C5C001360642000F084FDAE20FFF739FE2020D5
:101C6C00FFF736FE0020FFF733FEB020FFF730FE03
:101C7C00C820FFF72DFE0020FFF72AFE1020FFF7EB
:101C8C0027FE4020FFF724FE8120FFF721FE7F2056
:101C9C00FFF71EFEA120FFF71BFEA620FFF718FE84
:101CAC00A820FFF715FE3F20FFF712FEA420FFF738
:101CBC000FFED320FFF70CFE0020FFF709FED52006
:101CCC00FFF706FE8020FFF703FED920FFF700FE8A
:101CDC00F120FFF7FDFDDA20FFF7FAFD1220FFF7E8
:101CEC00F7FDDB20FFF7F4FD4020FFF7F1FD8D2021
:101CFC00FFF7EEFD1420FFF7EBFDAF20FFF7E8FD3B
:101D0C00002000F013F800F029F8642000F028FD02
:101D1C00002000F00BF800F021F8642000F020FD0A
:101D2C0000BF0837BD4680BDE401002080B582B0FD
:101D3C0000AF0346FB71FB79002B01D0FF2300E0C1
:101D4C0000234FF480621946034803F015FD00BFD1
:101D5C000837BD4680BD00BFE801002080B588B0C3
:101D6C0002AF2B4B1B68002B4ED00023FB7547E0BA
:101D7C00FB7D503BDBB21846FFF7AAFD0020FFF7B6
:101D8C00A7FD1020FFF7A4FD0023BB7531E0402315
:101D9C003B7100237B7510E0FB7DDA01BB7D1A449F
:101DAC007B7D1A447B7D01331A498A5C18333B4492
:101DBC0003F8142C7B7D01337B757B7D0F2BEBD9CA
:101DCC00134B18683A1D642300931123782101F0FA
:101DDC0079FD0346002B09D04FF400510E4801F059
:101DEC00FCFB642000F0BCFC00BFF5E7BB7D1033AE
:101DFC00BB7597F91630002BC9DAFB7D0133FB75E7
:101E0C00FB7D072BB4D900E000BF1837BD4680BD61
:101E1C00E4010020E80100200010014080B483B0F0
:101E2C0000AF03460A46FB711346BB71054AFB79AA
:101E3C001370054ABB79137000BF0C37BD4680BCCC
:101E4C00704700BFE8050020E905002080B586B08A
:101E5C0000AF0346FB71FB791846FFF7B7FD3861FD
:101E6C000023FB7535E0FB7D3A6913441B78FB734B
:101E7C000023BB7527E0FA7BBB7D42FA03F303F02A
:101E8C000103002B0ED02B4B1A78FB7D1344D8B2D8
:101E9C00294B1A78BB7D1344DBB201221946FFF79C
:101EAC0043FD0DE0234B1A78FB7D1344D8B2224B33
:101EBC001A78BB7D1344DBB200221946FFF734FDC0
:101ECC00BB7D0133BB75BB7D062BD4D9FB7D0133A8
:101EDC00FB75FB7D042BC6D900237B750FE0154BDE
:101EEC001B780533D8B2144B1A787B7D1344DBB2C4
:101EFC0000221946FFF718FD7B7D01337B757B7D36
:101F0C00062BECD90B4B1B780633DAB2094B1A7043
:101F1C00084B1B787A2B08D9064B00221A70064BFB
:101F2C001B780833DAB2044B1A7000BF1837BD4661
:101F3C0080BD00BFE8050020E905002080B582B017
:101F4C0000AF786007E07B681B781846FFF77EFFD0
:101F5C007B6801337B607B681B78002BF3D100BF5F
:101F6C0000BF0837BD4680BD80B584B000AFF860B7
:101F7C00B9607A60144AFB681360144ABB6813603A
:101F8C00134A7B681360104B1B68104A1268114689
:101F9C00184602F0BBFD0C4B1B680D4A126811462B
:101FAC00184602F0B3FD012201210A4801F0FDFAA6
:101FBC0001220221074801F0F8FA00F0CFF800BF27
:101FCC001037BD4680BD00BFEC050020F005002099
:101FDC00F4050020000C014080B582B000AF034630
:101FEC000A46FB8013467B71584B1B68002B00F094
:101FFC00A980FB8840F65C52934202D940F65C53B0
:10200C00FB8001220121524801F0CFFA012202216A
:10201C004F4801F0CAFA7B79012B02D0022B47D032
:10202C008DE04C4B1B68002B05D1484B1B681B6883
:10203C00FA885A6318E0474B1B68042B05D1434BB5
:10204C001B681A68FB8893630EE0424B1B68082BD5
:10205C0005D13E4B1B681A68FB88D36304E03B4BED
:10206C001B681A68FB8813643B4B1B68002B05D15B
:10207C00364B1B681B6800225A6364E0364B1B68A6
:10208C00042B05D1314B1B681A68002393635AE06B
:10209C00314B1B68082B05D12C4B1B681A6800238D
:1020AC00D36350E0294B1B681A68002313644AE081
:1020BC00284B1B68002B05D1244B1B681B68002286
:1020CC005A6318E0234B1B68042B05D11F4B1B686C
:1020DC001A68002393630EE01E4B1B68082B05D176
:1020EC001A4B1B681A680023D36304E0174B1B6858
:1020FC001A6800231364184B1B68002B05D1134B73
:10210C001B681B68FA885A631DE0134B1B68042B71
:10211C0005D10E4B1B681A68FB88936313E00E4BBA
:10212C001B68082B05D1094B1B681A68FB88D36305
:10213C0009E0064B1B681A68FB88136403E000F087
:10214C000DF800E000BF0837BD4680BDEC0500204F
:10215C00000C0140F0050020F405002080B500AF14
:10216C002A4B1B68002B45D0294B1B68002B05D133
:10217C00264B1B681B6800225A6318E0244B1B6813
:10218C00042B05D1214B1B681A68002393630EE0C6
:10219C001F4B1B68082B05D11C4B1B681A680023AE
:1021AC00D36304E0194B1B681A6800231364194BA2
:1021BC001B68002B05D1154B1B681B6800225A634A
:1021CC0018E0144B1B68042B05D1104B1B681A68C4
:1021DC00002393630EE00F4B1B68082B05D10B4BB0
:1021EC001B681A680023D36304E0084B1B681A6849
:1021FC000023136401220121074801F0D6F90122C2
:10220C000221054801F0D1F900BF80BDEC0500208A
:10221C00F0050020F4050020000C014080B485B0CE
:10222C0000AF154B9B69144A43F001039361124BA9
:10223C009B6903F00103BB60BB680F4BDB690E4A63
:10224C0043F08053D3610C4BDB6903F080537B600C
:10225C007B680A4B5B68FB60FB6823F0E063FB6008
:10226C00FB6843F00073FB60044AFB68536000BFDB
:10227C001437BD4680BC704700100240000001407E
:10228C0080B588B000AF786007F1100300221A60A7
:10229C005A609A60DA607B681B68144A934221D1B9
:1022AC00134B9B69124A43F400739361104B9B6967
:1022BC0003F40073FB60FB680D4B9B690C4A43F005
:1022CC00040393610A4B9B6903F00403BB60BB6876
:1022DC0039233B6103237B6107F110031946054841
:1022EC0000F0C8FF00BF2037BD4680BD0024014070
:1022FC00001002400008014080B588B000AF786043
:10230C0007F1100300221A605A609A60DA607B6849
:10231C001B68154A934223D1144B9B69134A43F013
:10232C0008039361114B9B6903F00803FB60FB6886
:10233C00C0233B6112237B610323FB6107F1100374
:10234C0019460B4800F096FF084BDB69074A43F42B
:10235C000013D361054BDB6903F40013BB60BB684E
:10236C0000BF2037BD4680BD005400400010024025
:10237C00000C014080B485B000AF78607B681B68AE
:10238C00094A93420BD1094BDB69084A43F002031B
:10239C00D361064BDB6903F00203FB60FB6800BFF3
:1023AC001437BD4680BC704700040040001002404A
:1023BC0080B588B000AF786007F1100300221A6076
:1023CC005A609A60DA607B681B680F4A934217D197
:1023DC000E4B9B690D4A43F0040393610B4B9B69B5
:1023EC0003F00403FB60FB68C0233B6102237B61A9
:1023FC000223FB6107F110031946054800F03AFF70
:10240C0000BF2037BD4680BD0004004000100240D4
:10241C000008014080B588B000AF786007F1100368
:10242C0000221A605A609A60DA607B681B681C4A4A
:10243C00934231D11B4B9B691A4A43F480439361FD
:10244C00184B9B6903F48043FB60FB68154B9B693D
:10245C00144A43F004039361124B9B6903F0040389
:10246C00BB60BB684FF400733B6102237B610323A9
:10247C00FB6107F1100319460B4800F0FBFE4FF40B
:10248C0080633B6100237B610023BB6107F1100378
:10249C001946054800F0EEFE00BF2037BD4680BD52
:1024AC0000380140001002400008014080B400AF29
:1024BC0000BFFDE780B400AF00BFFDE780B400AF04
:1024CC0000BFFDE780B400AF00BFFDE780B400AFF4
:1024DC0000BFFDE780B400AF00BFBD4680BC7047B5
:1024EC0080B400AF00BFBD4680BC704780B400AF65
:1024FC0000BFBD4680BC704780B500AF00F014F93A
:10250C0000BF80BD80B500AF022001F07FF800BF96
:10251C0080BD000080B586B000AF7860144A154BC2
:10252C00D31A7B617B693B61134B1B68002B02D177
:10253C00114B124A1A60104B1A687B6813443A69A3
:10254C009A4207D203F020F903460C221A604FF08E
:10255C00FF3309E0084B1B68FB60074B1A687B686C
:10256C001344054A1360FB6818461837BD4680BDF6
:10257C000050002000040000F80500205007002047
:10258C0080B400AF00BFBD4680BC704780B483B040
:10259C0000AF7860034A7B68136000BF0C37BD4600
:1025AC0080BC7047FC05002090B583B000AF78600C
:1025BC000C4B1B68002B10D07B68002B0DD0094BEB
:1025CC001C687868FDF7BCFD03469AB24FF0FF33E8
:1025DC007968204602F0C6FE00E000BF0C37BD460D
:1025EC0090BD00BFFC05002090B5A3B004AFBA604D
:1025FC007B600346FB810B46BB811349B868FDF732
:10260C00B5FE03461846FEF777F80346A7F8763072
:10261C00FC89B7F90C30B7F9762007F11000D7F820
:10262C008810039179680291019200932346074A1E
:10263C00642103F06BF807F110031846FFF7B4FFA1
:10264C0000BF7C37BD4690BD00007A442063000873
:10265C00FFF796FF0B480C490C4A002302E0D458B4
:10266C00C4500433C4188C42F9D3094A094C0023D2
:10267C0001E013600432A242FBD303F08BF8FEF7A7
:10268C0003FB704700000020740000203065000838
:10269C00740000204C070020FEE7000080B500AF5E
:1026AC00084B1B68074A43F010031360032000F02B
:1026BC009FFD0F2000F008F8FFF7B0FD002318462F
:1026CC0080BD00BF0020024080B582B000AF7860B2
:1026DC00124B1A68124B1B7819464FF47A73B3FBE2
:1026EC00F1F3B2FBF3F3184600F0B7FD0346002BF1
:1026FC0001D001230EE07B680F2B0AD800227968E9
:10270C004FF0FF3000F07FFD064A7B68136000231A
:10271C0000E0012318460837BD4680BD1800002094
:10272C00200000201C00002080B400AF054B1B785B
:10273C001A46054B1B681344034A136000BFBD4681
:10274C0080BC7047200000200006002080B400AF41
:10275C00024B1B681846BD4680BC70470006002023
:10276C0080B584B000AF7860FFF7F0FFB8607B688D
:10277C00FB60FB68B3F1FF3F05D00A4B1B781A4690
:10278C00FB681344FB6000BFFFF7E0FF0246BB6829
:10279C00D31AFA689A42F7D800BF00BF1037BD466B
:1027AC0080BD00BF2000002080B586B000AF7860EF
:1027BC000023FB7500233B610023BB600023FB60FF
:1027CC007B68002B01D10123BEE07B689B68002B4A
:1027DC007B689B6A002B09D17B680022DA627B68DC
:1027EC00002283F824207868FFF74AFD786800F00F
:1027FC00F1FB0346FB757B689B6A03F01003002B0F
:10280C0040F09980FB7D002B40F095807B689B6AA3
:10281C0023F4885323F0020343F002027B689A628C
:10282C007B685A687B68DB691A437B681B7B5B009F
:10283C001343BA681343BB607B689B68B3F5807F16
:10284C0003D07B689B68012B02D14FF4807300E0AE
:10285C0000233A6913433B617B681B7D012B19D123
:10286C007B681B7B002B09D17B689B69013B5A035E
:10287C003B69134343F400633B610BE07B689B6A49
:10288C0043F020027B689A627B68DB6A43F00102AA
:10289C007B68DA627B681B685B6823F469417B6840
:1028AC001B683A690A435A607B681B689A68284B14
:1028BC0013407A681268B9680B4393607B689B6815
:1028CC00B3F5807F03D07B689B68012B04D17B68B8
:1028DC001B69013B1B05FB607B681B68DB6A23F4EF
:1028EC0070017B681B68FA680A43DA627B681B68B4
:1028FC009A68184B1340BA689A420BD17B68002235
:10290C00DA627B689B6A23F0030343F001027B6865
:10291C009A6218E07B689B6A23F0120343F0100262
:10292C007B689A627B68DB6A43F001027B68DA623F
:10293C000123FB7507E07B689B6A43F010027B6800
:10294C009A620123FB75FB7D18461837BD4680BD86
:10295C00FDF7E1FFFE0E1FFF80B584B000AF78607D
:10296C000023FB737B6893F82430012B01D10223E5
:10297C0098E07B68012283F82420786800F0D0FA74
:10298C000346FB73FB7B002B40F087807B689B6AC4
:10299C0023F4407323F0010343F480727B689A6242
:1029AC007B681B68414A934205D1414B5B6803F439
:1029BC007023002B15D17B689B6A23F480127B68F3
:1029CC009A627B681B685B6803F48063002B26D0DB
:1029DC007B689B6A23F4405343F480527B689A6271
:1029EC001DE07B689B6A43F480127B689A627B686B
:1029FC001B682F4A934204D07B681B682B4A934276
:102A0C000DD12B4B5B6803F48063002B07D07B68E4
:102A1C009B6A23F4405343F480527B689A627B6830
:102A2C009B6A03F48053002B06D07B68DB6A23F08F
:102A3C0006027B68DA6202E07B680022DA627B685D
:102A4C00002283F824207B681B686FF002021A6056
:102A5C007B681B689B6803F46023B3F5602F13D16C
:102A6C007B681B68114A934205D1114B5B6803F4D8
:102A7C007023002B08D17B681B689A687B681B68E5
:102A8C0042F4A0029A600CE07B681B689A687B6831
:102A9C001B6842F480129A6003E07B68002283F882
:102AAC002420FB7B18461037BD4680BD0028014012
:102ABC000024014080B584B000AF78600023FB7324
:102ACC007B6893F82430012B01D102231AE07B6838
:102ADC00012283F82420786800F07CFA0346FB730B
:102AEC00FB7B002B09D17B689B6A23F4885323F072
:102AFC00010343F001027B689A627B68002283F831
:102B0C002420FB7B18461037BD4680BD90B587B09E
:102B1C0000AF7860396000237B610023FB600023E9
:102B2C003B61FFF713FE78617B681B689B6803F4BD
:102B3C008073002B0BD07B689B6A43F020027B6870
:102B4C009A627B68002283F824200123D3E07B68FF
:102B5C001B685B6803F48073002B31D17B681B68A6
:102B6C00DB6A03F47003002B2AD121E03B68B3F13C
:102B7C00FF3F1DD03B68002B07D0FFF7E7FD024657
:102B8C007B69D31A3A689A4212D27B681B681B681D
:102B9C0003F00203002B0BD17B689B6A43F0040209
:102BAC007B689A627B68002283F824200323A2E0CE
:102BBC007B681B681B6803F00203002BD6D070E007
:102BCC004F4B1C68022001F09BFE0346B4FBF3F252
:102BDC007B681B6819694B4B0B40002B18D17B6829
:102BEC001B68D968484B0B40002B11D17B681B68C4
:102BFC001969464B0B40002B08D17B681B68D968C0
:102C0C00434B0B40002B01D1142320E029231EE061
:102C1C007B681B6819693D4B0B40002B06D17B6808
:102C2C001B68D9683A4B0B40002B0DD07B681B6896
:102C3C001969384B0B40002B08D17B681B68D9688D
:102C4C00344B0B40002B01D1542300E0FC2302FB3E
:102C5C0003F33B6121E03B68B3F1FF3F1AD03B68C3
:102C6C00002B07D0FFF772FD02467B69D31A3A6836
:102C7C009A420FD2FB683A699A420BD97B689B6ADD
:102C8C0043F004027B689A627B68002283F824205C
:102C9C00032330E0FB680133FB60FB683A699A421E
:102CAC00D9D87B681B686FF012021A607B689B6A2C
:102CBC0043F400727B689A627B681B689B6803F420
:102CCC006023B3F5602F15D17B681B7B002B11D1D2
:102CDC007B689B6A23F480727B689A627B689B6A30
:102CEC0003F48053002B05D17B689B6A43F00102EF
:102CFC007B689A62002318461C37BD4690BD00BF06
:102D0C00180000202449922424499200922449124C
:102D1C00922449004992240080B483B000AF7860BB
:102D2C007B681B68DB6C18460C37BD4680BC704753
:102D3C0080B485B000AF786039600023FB7300234A
:102D4C00BB607B6893F82430012B01D10223DCE0BB
:102D5C007B68012283F824203B685B68062B1CD817
:102D6C007B681B68596B3B685A6813469B0013447D
:102D7C00053B1F2202FA03F3DB4319403B6818683A
:102D8C003B685A6813469B001344053B00FA03F258
:102D9C007B681B680A435A633CE03B685B680C2BFE
:102DAC001CD87B681B68196B3B685A6813469B00E0
:102DBC001344233B1F2202FA03F3DB4319403B6805
:102DCC0018683B685A6813469B001344233B00FA6F
:102DDC0003F27B681B680A431A631BE07B681B6861
:102DEC00D96A3B685A6813469B001344413B1F2227
:102DFC0002FA03F3DB4319403B6818683B685A68D6
:102E0C0013469B001344413B00FA03F27B681B689A
:102E1C000A43DA623B681B68092B1CD97B681B6868
:102E2C00D9683B681A6813465B0013441E3B0722A3
:102E3C0002FA03F3DB4319403B6898683B681A6855
:102E4C0013465B0013441E3B00FA03F27B681B68BD
:102E5C000A43DA6019E07B681B6819693B681A68D9
:102E6C0013465B001344072202FA03F3DB431940B9
:102E7C003B6898683B681A6813465B00134400FA79
:102E8C0003F27B681B680A431A613B681B68102BB2
:102E9C0003D03B681B68112B32D17B681B681D4A21
:102EAC00934225D17B681B689B6803F40003002BBD
:102EBC0026D17B681B689A687B681B6842F4000209
:102ECC009A603B681B68102B1AD1134B1B68134A72
:102EDC00A2FB03239A0C13469B0013445B00BB60BC
:102EEC0002E0BB68013BBB60BB68002BF9D107E07B
:102EFC007B689B6A43F020027B689A620123FB7318
:102F0C007B68002283F82420FB7B18461437BD46CF
:102F1C0080BC7047002401401800002083DE1B4356
:102F2C0080B584B000AF78600023FB600023BB60E9
:102F3C007B681B689B6803F00103012B40D07B6806
:102F4C001B689A687B681B6842F001029A601F4BF1
:102F5C001B681F4AA2FB03239B0CBB6002E0BB68EF
:102F6C00013BBB60BB68002BF9D1FFF7EFFBF860AE
:102F7C001FE0FFF7EBFB0246FB68D31A022B18D9B4
:102F8C007B681B689B6803F00103012B11D07B68E5
:102F9C009B6A43F010027B689A627B68DB6A43F0A1
:102FAC0001027B68DA627B68002283F8242001230B
:102FBC0007E07B681B689B6803F00103012BD8D1E9
:102FCC00002318461037BD4680BD00BF18000020F6
:102FDC0083DE1B4380B584B000AF78600023FB60B8
:102FEC007B681B689B6803F00103012B2ED17B6867
:102FFC001B689A687B681B6822F001029A60FFF7D5
:10300C00A5FBF8601BE0FFF7A1FB0246FB68D31A97
:10301C00022B14D97B681B689B6803F00103012BFE
:10302C000DD17B689B6A43F010027B689A627B68C7
:10303C00DB6A43F001027B68DA62012307E07B68FC
:10304C001B689B6803F00103012BDCD0002318469E
:10305C001037BD4680BD000080B485B000AF7860ED
:10306C007B6803F00703FB600C4BDB68BB60BA6842
:10307C004FF6FF031340BB60FB681A02BB68134397
:10308C0043F0BF6343F40033BB60044ABB68D360B6
:10309C0000BF1437BD4680BC704700BF00ED00E098
:1030AC0080B400AF044BDB681B0A03F0070318461F
:1030BC00BD4680BC704700BF00ED00E080B483B01B
:1030CC0000AF0346FB7197F90730002B0BDBFB7944
:1030DC0003F01F02064997F907305B09012000FA3B
:1030EC0002F241F8232000BF0C37BD4680BC70476C
:1030FC0000E100E080B483B000AF03463960FB719F
:10310C0097F90730002B0ADB3B68DAB20C4997F9C8
:10311C0007301201D2B20B4483F800230AE03B685B
:10312C00DAB20849FB7903F00F03043B1201D2B267
:10313C000B441A7600BF0C37BD4680BC704700BFED
:10314C0000E100E000ED00E080B489B000AFF86071
:10315C00B9607A60FB6803F00703FB61FB69C3F19C
:10316C000703042B28BF0423BB61FB690433062B24
:10317C0002D9FB69033B00E000237B614FF0FF3277
:10318C00BB6902FA03F3DA43BB681A407B699A40C5
:10319C004FF0FF317B6901FA03F3D9437B680B4095
:1031AC00134318462437BD4680BC704780B582B0A7
:1031BC0000AF78607B68013BB3F1807F01D30123C2
:1031CC000FE00A4A7B68013B53600F214FF0FF3040
:1031DC00FFF790FF054B00229A60044B07221A6000
:1031EC00002318460837BD4680BD00BF10E000E044
:1031FC0080B582B000AF78607868FFF72DFF00BF14
:10320C000837BD4680BD80B586B000AF0346B960B7
:10321C007A60FB7300237B61FFF742FF78617A6869
:10322C00B9687869FFF790FF024697F90F3011469D
:10323C001846FFF75FFF00BF1837BD4680BD80B54D
:10324C0082B000AF0346FB7197F907301846FFF7C1
:10325C0035FF00BF0837BD4680BD80B582B000AFDA
:10326C0078607868FFF7A2FF034618460837BD461A
:10327C0080BD000080B48BB000AF78603960002353
:10328C007B6200233B6269E101227B6A02FA03F351
:10329C00FB613B681B68FA691340BB61BA69FB6947
:1032AC009A4240F058813B685B689A4A93425ED0E0
:1032BC00984A934275D8984A934258D0964A93426A
:1032CC006FD8964A934252D0944A934269D8944A02
:1032DC0093424CD0924A934263D8924A934246D03E
:1032EC00904A93425DD8122B2AD8122B59D801A29E
:1032FC0052F823F07B33000855330008673300087D
:10330C00A9330008AF330008AF330008AF3300080F
:10331C00AF330008AF330008AF330008AF330008F9
:10332C00AF330008AF330008AF330008AF330008E9
:10333C00AF330008AF3300085D3300087133000869
:10334C00794A934213D02CE03B68DB683B6229E05E
:10335C003B68DB6804333B6224E03B68DB68083382
:10336C003B621FE03B68DB680C333B621AE03B6856
:10337C009B68002B02D104233B6213E03B689B68E3
:10338C00012B05D108233B627B68FA691A6109E0BD
:10339C0008233B627B68FA695A6103E000233B62B5
:1033AC0000E000BFBB69FF2B01D87B6801E07B68A4
:1033BC0004337B61BB69FF2B02D87B6A9B0002E064
:1033CC007B6A083B9B003B617B691A680F213B6958
:1033DC0001FA03F3DB431A40396A3B6901FA03F340
:1033EC001A437B691A603B685B6803F08053002BBF
:1033FC0000F0B1804D4B9B694C4A43F00103936143
:10340C004A4B9B6903F00103BB60BB68484A7B6A6B
:10341C009B08023352F82330FB607B6A03F00303F2
:10342C009B000F2202FA03F3DB43FA681340FB60A4
:10343C007B68404A934213D07B683F4A93420DD03D
:10344C007B683E4A934207D07B683D4A934201D148
:10345C00032306E0042304E0022302E0012300E03E
:10346C0000237A6A02F0030292009340FA68134335
:10347C00FB602F497B6A9B080233FA6841F82320D2
:10348C003B685B6803F48013002B06D02D4B9A68C5
:10349C002C49BB6913438B6006E02A4B9A68BB69C5
:1034AC00DB43284913408B603B685B6803F40013D3
:1034BC00002B06D0234BDA682249BB691343CB603F
:1034CC0006E0204BDA68BB69DB431E491340CB6036
:1034DC003B685B6803F40033002B06D0194B5A6829
:1034EC001849BB6913434B6006E0164B5A68BB691D
:1034FC00DB43144913404B603B685B6803F4803337
:10350C00002B21D00F4B1A680E49BB6913430B607B
:10351C0021E000BF0000321000003110000022102A
:10352C0000002110000012100000111000100240C9
:10353C000000014000080140000C01400010014057
:10354C0000140140000401400B4B1A68BB69DB43BB
:10355C00094913400B607B6A01337B623B681A6834
:10356C007B6A22FA03F3002B7FF48EAE00BF00BF00
:10357C002C37BD4680BC70470004014080B485B038
:10358C0000AF78600B467B807B689A687B88134021
:10359C00002B02D00123FB7301E00023FB73FB7BA8
:1035AC0018461437BD4680BC704780B483B000AF5A
:1035BC0078600B467B8013467B707B78002B03D0A6
:1035CC007A887B681A6103E07B881A047B681A612D
:1035DC0000BF0C37BD4680BC704780B485B000AFCF
:1035EC0078600B467B807B68DB68FB607A88FB68C5
:1035FC0013401A04FB68D9437B880B401A437B6841
:10360C001A6100BF1437BD4680BC704780B582B0CC
:10361C0000AF0346FB80084B5A69FB881340002B14
:10362C0006D0054AFB885361FB881846FEF792F8D2
:10363C0000BF0837BD4680BD0004014080B584B092
:10364C0000AF78607B68002B01D101232BE17B68F4
:10365C0093F83D30DBB2002B06D17B68002283F857
:10366C003C207868FEF748FE7B68242283F83D20D6
:10367C007B681B681A687B681B6822F001021A6061
:10368C007B681B681A687B681B6842F400421A60EE
:10369C007B681B681A687B681B6822F400421A60FE
:1036AC0001F032F8F8607B685B68814A934207D876
:1036BC00FB68804A934294BF01230023DBB206E0EF
:1036CC00FB687D4A934294BF01230023DBB2002B9D
:1036DC0001D00123E7E0FB68784AA2FB03239B0C93
:1036EC00BB607B681B685B6823F03F017B681B68D1
:1036FC00BA680A435A607B681B681B6A23F03F0157
:10370C007B685B686A4A934202D8BB68013309E064
:10371C00BB684FF4967202FB03F3694AA2FB0323C6
:10372C009B0901337A6812680B4313627B681B6830
:10373C00DB6923F44F4222F0FF027B685B685C4933
:10374C008B4219D8FB68591E7B685B685B00B1FB28
:10375C00F3F3591C40F6FC730B40002B0AD0FB68AA
:10376C00591E7B685B685B00B1FBF3F30133C3F359
:10377C000B0351E004234FE07B689B68002B11D1B5
:10378C00FB68581E7B6859680B465B000B44B0FB0A
:10379C00F3F30133C3F30B03002B0CBF0123002302
:1037AC00DBB212E0FB68581E7B6859680B469B0025
:1037BC000B4499000B44B0FBF3F30133C3F30B033D
:1037CC00002B0CBF01230023DBB2002B01D0012303
:1037DC0022E07B689B68002B0ED1FB68581E7B682F
:1037EC0059680B465B000B44B0FBF3F30133C3F396
:1037FC000B0343F400430FE0FB68581E7B685968C9
:10380C000B469B000B4499000B44B0FBF3F30133C4
:10381C00C3F30B0343F44043796809681343CB614A
:10382C007B681B681B6823F0C0017B68DA697B68C6
:10383C001B6A1A437B681B680A431A607B681B6807
:10384C009B6823F4034323F0FF037A6811697A68B9
:10385C00D26811437A6812680B4393607B681B68CB
:10386C00DB6823F0FF017B685A697B689B691A430C
:10387C007B681B680A43DA607B681B681A687B6884
:10388C001B6842F001021A607B6800221A647B6894
:10389C00202283F83D207B6800221A637B6800227B
:1038AC0083F83E20002318461037BD4680BD00BF6C
:1038BC00A08601007F841E00FF083D0083DE1B43B1
:1038CC00D34D621080B588B002AFF8607A601A46AA
:1038DC000B467B8113463B81FEF738FF7861FB6812
:1038EC0093F83D30DBB2202B40F0E0807B690093F5
:1038FC00192301227049F86800F064F90346002B83
:10390C0001D00223D3E0FB6893F83C30012B01D1AA
:10391C000223CCE0FB68012283F83C20FB681B6887
:10392C001B6803F00103012B07D0FB681B681A68A6
:10393C00FB681B6842F001021A60FB681B681A687E
:10394C00FB681B6822F400621A60FB68212283F872
:10395C003D20FB68102283F83E20FB6800221A648D
:10396C00FB687A685A62FB683A895A85FB685B8DFA
:10397C009AB2FB681A85FB68504ADA6279897B69CE
:10398C003A6AF86800F09CF80346002B01D001233A
:10399C008DE000233B61FB681B685B693B61FB6846
:1039AC001B689B693B613B6966E07A69396AF86818
:1039BC0000F022FA0346002B0DD0FB681B6C042B85
:1039CC0007D1FB681B681A68FB681B6842F400721D
:1039DC001A6001236BE0FB685B6A1A78FB681B6852
:1039EC001A61FB685B6A5A1CFB685A62FB685B8D48
:1039FC009BB2013B9AB2FB685A85FB681B8D013B5D
:103A0C009AB2FB681A85FB681B685B6903F00403B8
:103A1C00042B1BD1FB681B8D002B17D0FB685B6A3A
:103A2C001A78FB681B681A61FB685B6A5A1CFB6896
:103A3C005A62FB685B8D9BB2013B9AB2FB685A855C
:103A4C00FB681B8D013B9AB2FB681A857A69396A4F
:103A5C00F86800F019FA0346002B0DD0FB681B6CBC
:103A6C00042B07D1FB681B681A68FB681B6842F4BF
:103A7C0000721A6001231AE0FB681B8D002B94D195
:103A8C00FB681B681A68FB681B6842F400721A60BA
:103A9C00FB68202283F83D20FB68002283F83E203F
:103AAC00FB68002283F83C20002300E00223184628
:103ABC001837BD4680BD00BF020010000000FFFF9C
:103ACC0080B588B002AFF8607A603B600B467B81B2
:103ADC00FB68DB6A7B617B69082B06D07B69012B59
:103AEC0003D07B6913F5803F08D1FB681B681A680B
:103AFC00FB681B6842F480721A600BE0FB681B6B5E
:103B0C00122B07D1FB681B681A68FB681B6842F410
:103B1C0080721A603B6800937B6800224FF00111A1
:103B2C00F86800F04FF80346002B0DD0FB681B68BB
:103B3C001B6803F48073B3F5807F03D1FB684FF4EB
:103B4C0000721A64032335E0FB681B69B3F5804FE0
:103B5C0008D17B89DBB21A46FB681B6802F0FE02B7
:103B6C001A611BE07B89DB11DBB203F00603DBB2CD
:103B7C0063F00F03DAB2FB681B681A613B687A6862
:103B8C000E49F86800F098F80346002B01D0012389
:103B9C0010E07B89DAB2FB681B681A613B687A68B3
:103BAC000749F86800F088F80346002B01D0012380
:103BBC0000E0002318461837BD4680BD0800010000
:103BCC000200010080B584B000AFF860B9603B60C2
:103BDC001346FB7148E03B68B3F1FF3F44D0FEF75E
:103BEC00B5FD0246BB69D31A3A689A4202D33B68C8
:103BFC00002B39D1BB681B0CDBB2012B0DD1FB6840
:103C0C001B685B69DA43BB6813409BB2002B0CBF8B
:103C1C0001230023DBB21A460CE0FB681B689B698E
:103C2C00DA43BB6813409BB2002B0CBF012300236B
:103C3C00DBB21A46FB799A4216D1FB6800221A6352
:103C4C00FB68202283F83D20FB68002283F83E208D
:103C5C00FB681B6C43F02002FB681A64FB680022B3
:103C6C0083F83C20012323E0BB681B0CDBB2012B47
:103C7C000DD1FB681B685B69DA43BB6813409BB2D0
:103C8C00002B0CBF01230023DBB21A460CE0FB68AF
:103C9C001B689B69DA43BB6813409BB2002B0CBFBB
:103CAC0001230023DBB21A46FB799A4293D00023FE
:103CBC0018461037BD4680BD80B584B000AFF860A3
:103CCC00B9607A603B6071E0FB681B685B6903F468
:103CDC008063B3F5806F23D1FB681B681A68FB689F
:103CEC001B6842F400721A60FB681B686FF48062F8
:103CFC005A61FB6800221A63FB68202283F83D207E
:103D0C00FB68002283F83E20FB681B6C43F0040226
:103D1C00FB681A64FB68002283F83C20012367E0EF
:103D2C007B68B3F1FF3F41D0FEF710FD02463B68C4
:103D3C00D31A7A689A4202D37B68002B36D1BB68BF
:103D4C001B0CDBB2012B0CD1FB681B685B69DA43E3
:103D5C00BB6813409BB2002B14BF01230023DBB2C2
:103D6C000BE0FB681B689B69DA43BB6813409BB292
:103D7C00002B14BF01230023DBB2002B16D0FB68F1
:103D8C0000221A63FB68202283F83D20FB68002286
:103D9C0083F83E20FB681B6C43F02002FB681A641E
:103DAC00FB68002283F83C20012321E0BB681B0C3C
:103DBC00DBB2012B0CD1FB681B685B69DA43BB6877
:103DCC0013409BB2002B14BF01230023DBB20BE08A
:103DDC00FB681B689B69DA43BB6813409BB2002BE2
:103DEC0014BF01230023DBB2002B7FF46DAF002343
:103DFC0018461037BD4680BD80B584B000AFF86062
:103E0C00B9607A6034E0F86800F086F80346002B5D
:103E1C0001D0012334E0BB68B3F1FF3F28D0FEF79B
:103E2C0095FC02467B68D31ABA689A4202D3BB68E7
:103E3C00002B1DD1FB681B685B6903F08003802B92
:103E4C0016D0FB6800221A63FB68202283F83D2001
:103E5C00FB68002283F83E20FB681B6C43F02002B9
:103E6C00FB681A64FB68002283F83C20012307E0FE
:103E7C00FB681B685B6903F08003802BC3D10023B4
:103E8C0018461037BD4680BD80B584B000AFF860D1
:103E9C00B9607A6034E0F86800F03EF80346002B15
:103EAC0001D0012334E0BB68B3F1FF3F28D0FEF70B
:103EBC004DFC02467B68D31ABA689A4202D3BB689F
:103ECC00002B1DD1FB681B685B6903F00403042BFA
:103EDC0016D0FB6800221A63FB68202283F83D2071
:103EEC00FB68002283F83E20FB681B6C43F0200229
:103EFC00FB681A64FB68002283F83C20012307E06E
:103F0C00FB681B685B6903F00403042BC3D100231B
:103F1C0018461037BD4680BD80B483B000AF7860C2
:103F2C007B681B685B6903F48063B3F5806F1BD1FE
:103F3C007B681B686FF480625A617B6800221A638D
:103F4C007B68202283F83D207B68002283F83E208A
:103F5C007B681B6C43F004027B681A647B6800224C
:103F6C0083F83C20012300E0002318460C37BD46A3
:103F7C0080BC704780B586B000AF78607B68002B42
:103F8C0001D1012372E27B681B6803F00103002B53
:103F9C0000F08780924B5B6803F00C03042B0CD071
:103FAC008F4B5B6803F00C03082B12D18C4B5B68B6
:103FBC0003F48033B3F5803F0BD1894B1B6803F4BA
:103FCC000033002B6CD07B685B68002B68D101231D
:103FDC004CE27B685B68B3F5803F06D1804B1B6875
:103FEC007F4A43F4803313602EE07B685B68002BC0
:103FFC000CD17B4B1B687A4A23F480331360784BCB
:10400C001B68774A23F4802313601DE07B685B6890
:10401C00B3F5A02F0CD1724B1B68714A43F480236B
:10402C0013606F4B1B686E4A43F4803313600BE0D4
:10403C006B4B1B686A4A23F480331360684B1B6814
:10404C00674A23F4802313607B685B68002B13D0D2
:10405C00FEF77CFB386108E0FEF778FB02463B6913
:10406C00D31A642B01D9032300E25D4B1B6803F4C4
:10407C000033002BF0D014E0FEF768FB386108E049
:10408C00FEF764FB02463B69D31A642B01D9032368
:10409C00ECE1534B1B6803F40033002BF0D100E030
:1040AC0000BF7B681B6803F00203002B63D04C4BF2
:1040BC005B6803F00C03002B0BD0494B5B6803F0DF
:1040CC000C03082B1CD1464B5B6803F48033002B8C
:1040DC0016D1434B1B6803F00203002B05D07B6801
:1040EC001B69012B01D00123C0E13D4B1B6823F060
:1040FC00F8027B685B69DB00394913430B603AE0DB
:10410C007B681B69002B20D0364B01221A60FEF70E
:10411C001DFB386108E0FEF719FB02463B69D31A18
:10412C00022B01D90323A1E12D4B1B6803F00203E1
:10413C00002BF0D02A4B1B6823F0F8027B685B69DC
:10414C00DB00274913430B6015E0264B00221A6055
:10415C00FEF7FCFA386108E0FEF7F8FA02463B6914
:10416C00D31A022B01D9032380E11D4B1B6803F0EA
:10417C000203002BF0D17B681B6803F00803002BB3
:10418C003AD07B689B69002B19D0174B01221A601F
:10419C00FEF7DCFA386108E0FEF7D8FA02463B6914
:1041AC00D31A022B01D9032360E10D4B5B6A03F098
:1041BC000203002BF0D0012000F0CEFA1CE00A4BD9
:1041CC0000221A60FEF7C2FA38610FE0FEF7BEFA61
:1041DC0002463B69D31A022B08D9032346E100BFE0
:1041EC00001002400000424280044242924B5B6A43
:1041FC0003F00203002BE9D17B681B6803F0040376
:10420C00002B00F0A6800023FB758B4BDB6903F0C1
:10421C008053002B0DD1884BDB69874A43F08053C8
:10422C00D361854BDB6903F08053BB60BB68012312
:10423C00FB75824B1B6803F48073002B18D17F4BEA
:10424C001B687E4A43F480731360FEF77FFA386173
:10425C0008E0FEF77BFA02463B69D31A642B01D9BE
:10426C00032303E1754B1B6803F48073002BF0D020
:10427C007B68DB68012B06D16F4B1B6A6E4A43F0DF
:10428C00010313622DE07B68DB68002B0CD16A4BB9
:10429C001B6A694A23F001031362674B1B6A664A67
:1042AC0023F0040313621CE07B68DB68052B0CD144
:1042BC00614B1B6A604A43F0040313625E4B1B6A3A
:1042CC005D4A43F0010313620BE05B4B1B6A5A4AD5
:1042DC0023F001031362584B1B6A574A23F0040363
:1042EC0013627B68DB68002B15D0FEF72FFA386160
:1042FC000AE0FEF72BFA02463B69D31A41F28832E8
:10430C00934201D90323B1E04B4B1B6A03F0020328
:10431C00002BEED014E0FEF719FA38610AE0FEF734
:10432C0015FA02463B69D31A41F28832934201D9FD
:10433C0003239BE0404B1B6A03F00203002BEED1DE
:10434C00FB7D012B05D13C4BDB693B4A23F08053B1
:10435C00D3617B68DB69002B00F08780364B5B6890
:10436C0003F00C03082B61D07B68DB69022B46D170
:10437C00334B00221A60FEF7E9F9386108E0FEF7CA
:10438C00E5F902463B69D31A022B01D903236DE0F0
:10439C00294B1B6803F00073002BF0D17B681B6A60
:1043AC00B3F5803F08D1244B5B6823F400327B6863
:1043BC009B68214913434B601F4B5B6823F47412B9
:1043CC007B68196A7B685B6A0B431B4913434B6020
:1043DC001B4B01221A60FEF7B9F9386108E0FEF7B1
:1043EC00B5F902463B69D31A022B01D903233DE0F0
:1043FC00114B1B6803F00073002BF0D035E0104B11
:10440C0000221A60FEF7A2F9386108E0FEF79EF967
:10441C0002463B69D31A022B01D9032326E0064B33
:10442C001B6803F00073002BF0D11EE07B68DB6986
:10443C00012B07D1012319E000100240007000404D
:10444C00600042420B4B5B68FB60FB6803F48032FC
:10445C007B681B6A9A4206D1FB6803F470127B6876
:10446C005B6A9A4201D0012300E0002318461837FA
:10447C00BD4680BD0010024080B584B000AF7860AE
:10448C0039607B68002B01D10123D0E06A4B1B689B
:10449C0003F007033A689A4210D9674B1B6823F064
:1044AC00070265493B6813430B60634B1B6803F0C1
:1044BC0007033A689A4201D00123B8E07B681B6875
:1044CC0003F00203002B20D07B681B6803F004036D
:1044DC00002B05D0594B5B68584A43F4E06353609A
:1044EC007B681B6803F00803002B05D0534B5B68FB
:1044FC00524A43F460535360504B5B6823F0F00214
:10450C007B689B684D4913434B607B681B6803F0C9
:10451C000103002B40D07B685B68012B07D1474B14
:10452C001B6803F40033002B15D101237FE07B685B
:10453C005B68022B07D1414B1B6803F00073002B07
:10454C0009D1012373E03D4B1B6803F00203002BE0
:10455C0001D101236BE0394B5B6823F003027B68CC
:10456C005B68364913434B60FEF7F0F8F8600AE0DD
:10457C00FEF7ECF80246FB68D31A41F288329342FC
:10458C0001D9032353E02D4B5B6803F00C027B68CD
:10459C005B689B009A42EBD1274B1B6803F0070327
:1045AC003A689A4210D2244B1B6823F00702224926
:1045BC003B6813430B60204B1B6803F007033A68FE
:1045CC009A4201D0012332E07B681B6803F004039C
:1045DC00002B08D0194B5B6823F4E0627B68DB6826
:1045EC00164913434B607B681B6803F00803002BD0
:1045FC0009D0124B5B6823F460527B681B69DB00AB
:10460C000E4913434B6000F021F802460B4B5B68DC
:10461C001B0903F00F030A49CB5C22FA03F3094A86
:10462C001360094B1B681846FEF74EF8002318461A
:10463C001037BD4680BD00BF002002400010024074
:10464C00AC640008180000201C00002080B487B067
:10465C0000AF0023FB600023BB6000237B610023C1
:10466C007B6000233B611E4B5B68FB60FB6803F0C7
:10467C000C03042B02D0082B03D027E0194B3B6111
:10468C0027E0FB689B0C03F00F03174AD35C7B609D
:10469C00FB6803F48033002B10D0114B5B685B0C70
:1046AC0003F00103114AD35CBB607B680D4A03FB2A
:1046BC0002F2BB68B2FBF3F37B6104E07B680C4A4B
:1046CC0002FB03F37B617B693B6102E0054B3B61C1
:1046DC0000BF3B6918461C37BD4680BC704700BF05
:1046EC000010024000127A00C4640008D464000870
:1046FC0000093D0080B400AF024B1B681846BD4654
:10470C0080BC70471800002080B500AFFFF7F2FFA7
:10471C000246054B5B681B0A03F007030349CB5C9D
:10472C0022FA03F3184680BD00100240BC64000856
:10473C0080B500AFFFF7DEFF0246054B5B68DB0A76
:10474C0003F007030349CB5C22FA03F3184680BD40
:10475C0000100240BC64000880B485B000AF7860E3
:10476C000A4B1B680A4AA2FB03235B0A7A6802FB0A
:10477C0003F3FB6000BFFB685A1EFA60002BF9D1F3
:10478C0000BF00BF1437BD4680BC70471800002026
:10479C00D34D621080B586B000AF786000233B61CA
:1047AC000023FB607B681B6803F00103002B7DD0AA
:1047BC000023FB754F4BDB6903F08053002B0DD1AD
:1047CC004C4BDB694B4A43F08053D361494BDB695B
:1047DC0003F08053BB60BB680123FB75464B1B6821
:1047EC0003F48073002B18D1434B1B68424A43F4EB
:1047FC0080731360FDF7AAFF386108E0FDF7A6FF90
:10480C0002463B69D31A642B01D903236DE03A4B62
:10481C001B6803F48073002BF0D0364B1B6A03F437
:10482C004073FB60FB68002B2ED07B685B6803F445
:10483C004073FA689A4227D02E4B1B6A23F44073BC
:10484C00FB602E4B01221A602C4B00221A60294A65
:10485C00FB681362FB6803F00103002B14D0FDF717
:10486C0075FF38610AE0FDF771FF02463B69D31A08
:10487C0041F28832934201D9032336E01D4B1B6A67
:10488C0003F00203002BEED01A4B1B6A23F4407288
:10489C007B685B68174913430B62FB7D012B05D1C9
:1048AC00144BDB69134A23F08053D3617B681B687C
:1048BC0003F00203002B08D00E4B5B6823F440423C
:1048CC007B689B680B4913434B607B681B6803F048
:1048DC001003002B08D0074B5B6823F480027B6825
:1048EC00DB68044913434B60002318461837BD4658
:1048FC0080BD00BF001002400070004040044242E6
:10490C0080B588B000AF786000237B610023FB6129
:10491C0000233B610023FB600023BB617B68102BF1
:10492C000AD07B68102B00F28A807B68012B45D063
:10493C007B68022B75D082E0464B5B68FB60454B75
:10494C001B6803F08073002B7BD0FB689B0C03F07F
:10495C000F03414AD35C3B61FB6803F48033002BAB
:10496C0015D03C4B5B685B0C03F001033B4AD35CFA
:10497C007B61FB6803F48033002B0DD0384A7B69D4
:10498C00B2FBF3F23B6902FB03F3FB6104E03B690E
:10499C00344A02FB03F3FB612E4B5B6803F4800388
:1049AC00B3F5800F02D1FB69BB614AE0FB695B0088
:1049BC002D4AA2FB03235B08BB6142E0254B1B6A1B
:1049CC00FB60FB6803F44073B3F5807F08D1FB6890
:1049DC0003F00203002B03D04FF40043BB611FE034
:1049EC00FB6803F44073B3F5007F09D1194B5B6A84
:1049FC0003F00203002B03D049F64043BB610FE0E8
:104A0C00FB6803F44073B3F5407F1CD1114B1B685A
:104A1C0003F40033002B16D04FF22443BB6112E099
:104A2C0011E0FFF785FE02460A4B5B689B0B03F017
:104A3C00030301335B00B2FBF3F3BB6104E000BF83
:104A4C0002E000BF00E000BFBB6918462037BD463E
:104A5C0080BD00BF00100240D8640008E864000864
:104A6C0000127A0000093D00ABAAAAAA80B582B058
:104A7C0000AF78607B68002B01D1012341E07B689B
:104A8C0093F83D30DBB2002B06D17B68002283F813
:104A9C003C207868FDF76EFC7B68022283F83D2091
:104AAC007B681A687B6804331946104600F092F94B
:104ABC007B68012283F846207B68012283F83E2024
:104ACC007B68012283F83F207B68012283F8402019
:104ADC007B68012283F841207B68012283F8422005
:104AEC007B68012283F843207B68012283F84420F1
:104AFC007B68012283F845207B68012283F83D20E6
:104B0C00002318460837BD4680BD000080B584B030
:104B1C0000AF786039603B68002B09D17B6893F853
:104B2C003E30DBB2012B14BF01230023DBB222E0A9
:104B3C003B68042B09D17B6893F83F30DBB2012B27
:104B4C0014BF01230023DBB215E03B68082B09D10D
:104B5C007B6893F84030DBB2012B14BF0123002398
:104B6C00DBB208E07B6893F84130DBB2012B14BF59
:104B7C0001230023DBB2002B01D001235EE03B6854
:104B8C00002B04D17B68022283F83E2013E03B68A3
:104B9C00042B04D17B68022283F83F200BE03B6896
:104BAC00082B04D17B68022283F8402003E07B6849
:104BBC00022283F841207B681B6801223968184661
:104BCC0000F0FEFA7B681B681E4A934207D17B6893
:104BDC001B685A6C7B681B6842F400425A647B6801
:104BEC001B68184A93420ED07B681B68B3F1804F48
:104BFC0009D07B681B68144A934204D07B681B68FD
:104C0C00124A934211D17B681B689B6803F007031F
:104C1C00FB60FB68062B10D07B681B681A687B68EE
:104C2C001B6842F001021A6007E07B681B681A6877
:104C3C007B681B6842F001021A600023184610378B
:104C4C00BD4680BD002C014000040040000800401F
:104C5C0080B586B000AFF860B9607A600023FB7550
:104C6C00FB6893F83C30012B01D10223AEE0FB68CA
:104C7C00012283F83C207B680C2B00F29F8001A260
:104C8C0052F823F0C54C0008C94D0008C94D000866
:104C9C00C94D0008054D0008C94D0008C94D000854
:104CAC00C94D0008474D0008C94D0008C94D000802
:104CBC00C94D0008874D0008FB681B68B968184689
:104CCC0000F0F6F8FB681B689A69FB681B6842F0F9
:104CDC0008029A61FB681B689A69FB681B6822F0E2
:104CEC0004029A61FB681B689969BB681A69FB68C6
:104CFC001B680A439A6164E0FB681B68B968184634
:104D0C0000F03CF9FB681B689A69FB681B6842F46D
:104D1C0000629A61FB681B689A69FB681B6822F445
:104D2C0080629A61FB681B689969BB681B691A02EF
:104D3C00FB681B680A439A6143E0FB681B68B9680F
:104D4C00184600F085F9FB681B68DA69FB681B687C
:104D5C0042F00802DA61FB681B68DA69FB681B68C1
:104D6C0022F00402DA61FB681B68D969BB681A6916
:104D7C00FB681B680A43DA6123E0FB681B68B968AF
:104D8C00184600F0CFF9FB681B68DA69FB681B68F2
:104D9C0042F40062DA61FB681B68DA69FB681B6825
:104DAC0022F48062DA61FB681B68D969BB681B69F5
:104DBC001A02FB681B680A43DA6102E00123FB75E7
:104DCC0000BFFB68002283F83C20FB7D1846183797
:104DDC00BD4680BD80B485B000AF786039607B681B
:104DEC001B68FB607B682F4A93420BD07B68B3F146
:104DFC00804F07D07B682C4A934203D07B682B4AA8
:104E0C00934208D1FB6823F07003FB603B685B683E
:104E1C00FA681343FB607B68224A93420BD07B6891
:104E2C00B3F1804F07D07B681F4A934203D07B6855
:104E3C001E4A934208D1FB6823F44073FB603B6825
:104E4C00DB68FA681343FB60FB6823F080023B6865
:104E5C005B691343FB607B68FA681A603B689A686D
:104E6C007B68DA623B681A687B689A627B680D4AD9
:104E7C00934203D13B681A697B681A637B680122F1
:104E8C005A617B681B6903F00103002B05D07B681A
:104E9C001B6923F001027B681A6100BF1437BD4601
:104EAC0080BC7047002C014000040040000800400A
:104EBC0080B487B000AF786039607B681B6A7B6117
:104ECC007B681B6A23F001027B681A627B685B6853
:104EDC003B617B689B69FB60FB6823F07003FB60A4
:104EEC00FB6823F00303FB603B681B68FA68134301
:104EFC00FB607B6923F002037B613B689B687A69EA
:104F0C0013437B617B681C4A93420CD17B6923F071
:104F1C0008037B613B68DB687A6913437B617B69BF
:104F2C0023F004037B617B68134A934211D13B69E4
:104F3C0023F480733B613B6923F400733B613B6852
:104F4C005B693A6913433B613B689B693A6913435C
:104F5C003B617B683A695A607B68FA689A613B6886
:104F6C005A687B685A637B687A691A6200BF1C377F
:104F7C00BD4680BC704700BF002C014080B487B098
:104F8C0000AF786039607B681B6A7B617B681B6A49
:104F9C0023F010027B681A627B685B683B617B685C
:104FAC009B69FB60FB6823F4E043FB60FB6823F424
:104FBC004073FB603B681B681B02FA681343FB6081
:104FCC007B6923F020037B613B689B681B017A693A
:104FDC0013437B617B681D4A93420DD17B6923F09F
:104FEC0080037B613B68DB681B017A6913437B613F
:104FFC007B6923F040037B617B68144A934213D195
:10500C003B6923F480633B613B6923F400633B61A0
:10501C003B685B699B003A6913433B613B689B6946
:10502C009B003A6913433B617B683A695A607B6821
:10503C00FA689A613B685A687B689A637B687A69FC
:10504C001A6200BF1C37BD4680BC7047002C014063
:10505C0080B487B000AF786039607B681B6A7B6175
:10506C007B681B6A23F480727B681A627B685B68BE
:10507C003B617B68DB69FB60FB6823F07003FB60C2
:10508C00FB6823F00303FB603B681B68FA6813435F
:10509C00FB607B6923F400737B613B689B681B029C
:1050AC007A6913437B617B681D4A93420DD17B69FE
:1050BC0023F400637B613B68DB681B027A69134352
:1050CC007B617B6923F480637B617B68144A934228
:1050DC0013D13B6923F480533B613B6923F40053A8
:1050EC003B613B685B691B013A6913433B613B685D
:1050FC009B691B013A6913433B617B683A695A60AF
:10510C007B68FA68DA613B685A687B68DA637B68AB
:10511C007A691A6200BF1C37BD4680BC704700BF5D
:10512C00002C014080B487B000AF786039607B6898
:10513C001B6A3B617B681B6A23F480527B681A6292
:10514C007B685B687B617B68DB69FB60FB6823F4D5
:10515C00E043FB60FB6823F44073FB603B681B6817
:10516C001B02FA681343FB603B6923F400533B6159
:10517C003B689B681B033A6913433B617B680F4A8E
:10518C00934209D17B6923F480437B613B685B6963
:10519C009B017A6913437B617B687A695A607B68EF
:1051AC00FA68DA613B685A687B681A647B683A690A
:1051BC001A6200BF1C37BD4680BC7047002C0140F2
:1051CC0080B487B000AFF860B9607A60BB6803F058
:1051DC001F03012202FA03F37B61FB681A6A7B69E5
:1051EC00DB431A40FB681A62FB681A6ABB6803F05F
:1051FC001F03796801FA03F31A43FB681A6200BFB4
:10520C001C37BD4680BC704780B485B000AF786059
:10521C0039607B6893F83C30012B01D1022346E0C6
:10522C007B68012283F83C207B68022283F83D20B6
:10523C007B681B685B68FB607B681B689B68BB605A
:10524C00FB6823F07003FB603B681B68FA68134330
:10525C00FB607B681B68FA685A607B681B68164A9F
:10526C0093420ED07B681B68B3F1804F09D07B68EA
:10527C001B68124A934204D07B681B68104A934205
:10528C000CD1BB6823F08003BB603B685B68BA68D9
:10529C001343BB607B681B68BA689A607B68012209
:1052AC0083F83D207B68002283F83C2000231846BD
:1052BC001437BD4680BC7047002C014000040040F0
:1052CC000008004080B582B000AF78607B68002B8E
:1052DC0001D1012342E07B6893F84130DBB2002B13
:1052EC0006D17B68002283F840207868FDF792F89D
:1052FC007B68242283F841207B681B68DA687B6812
:10530C001B6822F40052DA60786800F071F97B684F
:10531C001B681A697B681B6822F490421A617B68CF
:10532C001B685A697B681B6822F02A025A617B68E9
:10533C001B68DA687B681B6842F40052DA607B6891
:10534C0000225A647B68202283F841207B6820224B
:10535C0083F842207B6800225A63002318460837E2
:10536C00BD4680BD80B58AB002AFF860B9603B60C5
:10537C001346FB8000237B61FB6893F84130DBB262
:10538C00202B75D1BB68002B02D0FB88002B01D1E0
:10539C0001236EE0FB6800225A64FB68212283F82B
:1053AC004120FDF7D3F97861FB68FA889A84FB6891
:1053BC00FA88DA84FB689B68B3F5805F08D1FB68D8
:1053CC001B69002B04D10023FB61BB68BB6103E0AC
:1053DC00BB68FB610023BB612EE03B6800937B69DB
:1053EC0000228021F86800F048F80346002B05D015
:1053FC00FB68202283F8412003233AE0FB69002B51
:10540C000BD1BB691B881A46FB681B68C2F30802E8
:10541C005A60BB690233BB6107E0FB691A78FB6811
:10542C001B685A60FB690133FB61FB68DB8C9BB228
:10543C00013B9AB2FB68DA84FB68DB8C9BB2002BD5
:10544C00CBD13B6800937B6900224021F86800F0C7
:10545C0014F80346002B05D0FB68202283F841206A
:10546C00032306E0FB68202283F84120002300E0A0
:10547C00022318462037BD4680BD80B586B000AFEC
:10548C00F860B9603B601346FB713BE03B6AB3F1DB
:10549C00FF3F37D0FDF75AF902463B68D31A3A6AF8
:1054AC009A4202D33B6A002B01D103233AE0FB68FA
:1054BC001B68DB6803F00403002B23D0BB68802B34
:1054CC0020D0BB68402B1DD0FB681B681B6803F009
:1054DC000803082B16D100237B61FB681B681B6833
:1054EC007B61FB681B685B687B617B69F86800F01B
:1054FC001DF8FB6808225A64FB68002283F84020E0
:10550C0001230FE0FB681B681A68BB681340BA687C
:10551C009A420CBF01230023DBB21A46FB799A4254
:10552C00B4D0002318461837BD4680BD80B495B062
:10553C0000AF78607B681B680C337B637B6B53E834
:10554C00003F3B633B6B23F49073FB647B681B68ED
:10555C000C33FA6C3A64FB63F96B3A6C41E8002348
:10556C00BB63BB6B002BE5D17B681B6814333B62C0
:10557C003B6A53E8003FFB61FB6923F00103BB640A
:10558C007B681B681433BA6CFA62BB62B96AFA6A3C
:10559C0041E800237B627B6A002BE5D17B681B6BA7
:1055AC00012B19D17B681B680C33FB60FB6853E83B
:1055BC00003FBB60BB6823F010037B647B681B68F7
:1055CC000C337A6CBA617B617969BA6941E8002362
:1055DC003B613B69002BE5D17B68202283F842209C
:1055EC007B6800221A6300BF5437BD4680BC7047ED
:1055FC0080B584B000AF78607B681B681B6923F4AE
:10560C0040517B68DA687B681B680A431A617B68C7
:10561C009A687B681B691A437B685B691343BB60A0
:10562C007B681B68DB6823F4B05323F00C037A68A7
:10563C001268B9680B43D3607B681B685B6923F401
:10564C0040717B689A697B681B680A435A617B6866
:10565C001B682C4A934203D1FFF76AF8F86002E00A
:10566C00FFF752F8F860FA6813469B0013449A004F
:10567C001A447B685B689B00B2FBF3F3224AA2FBE3
:10568C0003235B091901FA6813469B0013449A0023
:10569C001A447B685B689B00B2FBF3F21A4BA3FBCA
:1056AC0002035B09642000FB03F3D31A1B013233A2
:1056BC00154AA2FB03235B0903F0F0031944FA68B3
:1056CC0013469B0013449A001A447B685B689B004A
:1056DC00B2FBF3F20C4BA3FB02035B09642000FB4F
:1056EC0003F3D31A1B013233074AA2FB03235B09D2
:1056FC0003F00F027B681B680A449A6000BF1037E6
:10570C00BD4680BD003801401F85EB510CB430B54F
:10571C00184B0C1E1D689DB008DA8B234FF0FF3020
:10572C002B601DB0BDE8304002B070474FF40273DF
:10573C00ADF814304FF000031B930CBF234604F15B
:10574C00FF33049307934FF6FF7302900690ADF866
:10575C001630284621AB209A02A9019300F092F949
:10576C00431CBCBF8B232B60002CDAD00022029B85
:10577C001A70D6E72400002003460244934200D15D
:10578C00704703F8011BF9E7014B1868704700BF1D
:10579C002400002070B500260C4D0D4C641BA41089
:1057AC00A64209D100F076FC00260A4D0A4C641B77
:1057BC00A410A64205D170BD55F8043B984701369C
:1057CC00EEE755F8043B98470136F2E728650008E8
:1057DC0028650008286500082C650008704770478C
:1057EC0038B50546002940D051F8043C0C1F002B5D
:1057FC00B8BFE41800F0DEF81C4A136833B96360D4
:10580C0014602846BDE8384000F0DAB8A34208D945
:10581C00206821188B4201BF19685B680918216048
:10582C00EDE71A465B680BB1A342FAD91168501820
:10583C00A0420BD120680144501883421160E0D182
:10584C0018685B68084410605360DAE702D90C23CF
:10585C002B60D6E7206821188B4201BF19685B6862
:10586C000918216063605460CBE738BD48070020FD
:10587C0070B50F4E0C463168054611B900F0A8FB07
:10588C0030602146284600F0A3FB431C03D14FF0A7
:10589C00FF34204670BDC41C24F00304A042F8D091
:1058AC00211A284600F094FB0130F2D1EFE700BF3B
:1058BC00440700202DE9F843CD1C25F003050835DD
:1058CC000C2D38BF0C25002D064601DBA94204D94E
:1058DC000C2333600020BDE8F883DFF8D48000F09F
:1058EC0069F8D8F800301C4644BB29463046FFF70F
:1058FC00BFFF431C044658D1D8F800402746002F60
:10590C0043D1002C4BD023683946304604EB0309B5
:10591C0000F05EFB814542D1216830466D1A294664
:10592C00FFF7A6FF01303AD023682B442360D8F848
:10593C0000305A6862BBC8F800700FE02268521B36
:10594C0020D40B2A17D96119A342256018BF5960BE
:10595C00636808BFC8F8001062514B60304600F015
:10596C002FF804F10B00231D20F00700C21A1CBFF6
:10597C001B1AA350AFE76268A3420CBFC8F8002003
:10598C005A60EBE723466468AEE73C467F68B6E7AF
:10599C001A465B68A342FBD100235360DEE70C235D
:1059AC003046336000F00CF894E70560D6E700BF92
:1059BC00480700200148FFF711BF00BF4007002037
:1059CC000148FFF70CBF00BF400700202DE9F0474E
:1059DC001F468E688246BE420C4690460B682DD8F8
:1059EC00B1F90C2012F4906F26D06569096905EBAA
:1059FC004505A3EB010905EBD5757B1C4B446D10DC
:105A0C009D4238BF1D46530527D52946FFF752FF47
:105A1C00064660B34A46216900F0F8FAA38923F4DC
:105A2C00906343F08003A38126614E4426603E467A
:105A3C006561A5EB0905A560BE4200D93E4632461C
:105A4C004146206800F0AAFA0020A3689B1BA360C3
:105A5C00236833442360BDE8F0872A4600F0E4FA5B
:105A6C0006460028E0D150462169FFF7B9FE0C2309
:105A7C00CAF80030A3894FF0FF3043F04003A381F4
:105A8C00E9E700002DE9F04F98468B8907461B0685
:105A9C000D4614469DB010D50B6973B94021FFF724
:105AAC0009FF2860286130B90C233B604FF0FF30B0
:105ABC001DB0BDE8F08F40236B61002309932023B8
:105ACC008DF8293030234FF00109CDF80C80DFF828
